:020000040800F2
:100000008807002045010008D3340008892D000826
:10001000D134000819120008913E000800000000C9
:10002000000000000000000000000000333800085D
:100030001B120008000000003138000835380008A5
:100040005F0100085F0100085F0100085F01000810
:100050005F0100085F0100085F0100085F01000800
:100060005F0100085F0100085F0100085F010008F0
:100070005F0100085F0100085F0100085F010008E0
:100080005F0100085F0100085F0100085F010008D0
:100090005F0100085F0100085F0100085F010008C0
:1000A0005F010008ED3800085F0100085F010008EB
:1000B0005F0100085F0100085F0100085F010008A0
:1000C0005F0100085F0100085F0100085F01000890
:1000D0005F010008853E00085F0100085F0100081D
:1000E0005F0100085F0100085F0100085F01000870
:1000F0005F0100085F0100085F0100085F01000860
:100100005F0100085F0100085F0100085F0100084F
:100110005F0100085F0100085F0100085F0100083F
:100120005F0100085F0100085F0100085F0100082F
:10013000DFF80CD000F06EFC00480047D54B0008FB
:10014000880700200648804706480047FEE7FEE78C
:10015000FEE7FEE7FEE7FEE7FEE7FEE7FEE7FEE777
:10016000A538000831010008202A04DB203A21FAD2
:1001700002F00021704721FA02F3D040C2F12002C0
:100180009140084319467047D2B201E000F8012BB4
:10019000491EFBD270470022F6E710B513460A4607
:1001A00004461946FFF7F0FF204610BD30B504465F
:1001B0000020034600E05B1C934203D2E05CCD5C70
:1001C000401BF8D030BDF0B480EA0102D40F4200E9
:1001D000B2EB410F02D20246084611464A0042D015
:1001E000C30DDDB2C1F3C752AD1A202D35DAC1F30C
:1001F000160141F4000204B15242C5F1200602FA90
:1002000006F12A411044B3EBD05F23D0C4B1012DD5
:10021000A0EBC35009DCF0BC4FF0004202EAC3522D
:10022000DBB200F5000000F06ABB400000F1807016
:1002300000EBC350A0F1807040EAD170490009E0A2
:10024000490841EAC071A0EBC35000F50000400826
:1002500000EBC350F0BC00F049BB6142012202EB4D
:100260004101001BF6E7F0BC704781F00041AAE7AE
:1002700080F00040A7E780EA010210B502F00043D9
:10028000400022D04A001FD0010E01EB1261C0F3E2
:100290005600C2F3560240F4000042F40002A0FBF4
:1002A000022000047F39140400D0401C50EA1240A0
:1002B00001D44000491EC2B20C0604EBD010401C11
:1002C0004008802A02D003E0002010BD20F0010089
:1002D000002900DA0020184310BD30B480EA010282
:1002E00002F0004530F0004221F0004013D090B100
:1002F000C30DD40DC2F31601C0F31600E41A41F485
:10030000000140F400027D34914201D3641C00E0FE
:100310004900002C02DA30BC002070474FF4000086
:100320000023914201D3891A034340084FEA410157
:10033000F7D151B1914202D14FF0004105E002D214
:100340004FF0010101E06FF0010103EBC4502844BC
:1003500030BC00F0CBBA420005D0C0F3C7525242C5
:10036000914201DC0020704700EBC15070472DE93D
:10037000FE4F804681EA0300C00F0C46009021F03A
:10038000004123F00045B8EB0200A94105D24046E8
:10039000214690461C460B46024623F0004010437F
:1003A00047D0270DC7F30A00C3F30A510290401A41
:1003B000019040286BDAC3F3130040F4801B0098CF
:1003C000924620B10023D2EB030A63EB0B0B01989A
:1003D0005946C0F14002504600F067FA06460D4605
:1003E00050465946019A00F06FFA10EB080061413F
:1003F000002487EA115284EAE7731A4340D0009A36
:1004000062B3019A012A4FEA075215DC001B61EB27
:1004100002014FF0004202EA0752CDE90042001CFF
:1004200041F5801132462B4600F0A6FA03B0BDE834
:10043000F08F40462146F9E7001B61EB0201001CEA
:1004400041F5801300185B412018A2F5001747EB17
:10045000030140EAD570B6196D4111E06D084FEA0D
:10046000360645EAC0754FEA0752001B61EB0201F0
:10047000001C41F5801149084FEA30000019514134
:1004800032462B4603B0BDE8F04F00F066BA009844
:10049000012240000023D0EB020263EBE0730098DE
:1004A00021464FEAE074B8EB000061EB0401E9E794
:1004B00083F000435BE781F0004158E72DE9FE4FF0
:1004C00081EA030404F0004421F0004100944FF05D
:1004D000000B23F0004350EA01045ED052EA03040B
:1004E0005BD0C3F30A54C1F30A552C44A4F2F3348D
:1004F0000194A0FB0254C1F3130141F48011C3F332
:10050000130343F4801301FB024400FB034E840AEF
:10051000970A44EA815447EA8357A4FB0768029587
:100520008D0A05FB07854FEA932C04FB0C54270525
:10053000029D4FEA065847EA1637B5EB08056EEB01
:10054000070C870E920E47EA811742EA8312A7FB37
:100550000201B6EB0B0164EB00042B0D43EA0C33F4
:100560005E1844EB1C50DA465146E7FB0201C5F326
:1005700013044FEA0B3343EA14534FEA0432019C4D
:1005800043EA0603A4F10C040294009CCDE900B4F4
:1005900000F0F2F903B0BDE8F08F00200146F9E762
:1005A0002DE9F04D81EA030404F0004B21F00045F1
:1005B00014464FF0000A23F0004150EA050220D013
:1005C00054EA01021DD0C5F30A570246C5F31303CE
:1005D000C1F31300C1F30A5640F4801543F48013AD
:1005E000A7EB0608101BD64608F2FD3873EB050092
:1005F00002D308F1010801E092185B41B8F1000F45
:1006000003DA00200146BDE8F08D00204FF4801190
:10061000064684460EE0171B73EB050705D3121B35
:1006200063EB050306434CEA010C49084FEA30002E
:1006300092185B4150EA0107EDD152EA030012D053
:1006400082EA040083EA0501084305D0101BAB4190
:1006500006D20122002306E000224FF0004302E010
:100660006FF0010253101AEB06004CEB085110EB2F
:100670000A0041EB0B01BDE8F04D00F06EB970B51A
:1006800021F0004303430CD0C1F30A550024D5EBFD
:10069000040564EB0403D617AD1AB34102DB002056
:1006A000014670BD201841EB025170BD9623002217
:1006B000114600F024B90EB5C10F80EAE07008447D
:1006C000CA07002140F233438DE80E000A460B466C
:1006D00000F052F903B000BD0EB540F23341029173
:1006E0000021CDE900110A460B4600F045F903B0A0
:1006F00000BD20F00040C10DC0F3160040F4000022
:100700007F2901DA00207047962903DCC1F19601A8
:10071000C840704796398840704770B5C1F30A5297
:1007200001F000450024C1F3130140F2FF3341F40E
:1007300080119A4201DA002070BD40F233439A42A0
:10074000A2F2334203DC5242FFF70EFD00E090407C
:100750002C43F1D0404270BDC1F30A5210B5C1F331
:10076000130140F2FF3341F480119A4201DA002074
:1007700010BD40F233439A42A2F2334203DC5242AC
:10078000FFF7F2FC10BD904010BD00F0004230F0C9
:1007900000400AD0C10D01F56071C0F3160042EAB5
:1007A0000151C208400711437047002001467047BD
:1007B00030B5041E71F1000404DB4FF000444042E8
:1007C00064EB0101141E73F1000405DB1C464FF0BD
:1007D0000043524263EB04038B4208BF824230BDA8
:1007E00030B5041E71F1000404DB4FF000444042B8
:1007F00064EB0101141E73F1000405DB1C464FF08D
:100800000043524263EB0403994208BF904230BD5B
:1008100001F0004330B421F0004150EA010206D05B
:100820000A0DA2F56072C1F31301002A02DC30BC8C
:1008300000207047440F44EAC104C100E01830BCF6
:1008400000EBC25000F052B82DE9F05F05460020E1
:1008500092469B4688460646814640241BE0284631
:10086000414647462246FFF77FFC53465A46C01A88
:10087000914110D311461846224600F016F82D1A61
:1008800067EB01084F4622460120002100F00DF8D9
:1008900017EB00094E41201EA4F10104DFDC48469D
:1008A00031462A464346BDE8F09F202A04DB203A21
:1008B00000FA02F1002070479140C2F1200320FAB3
:1008C00003F3194390407047202A06DBCB17203AE8
:1008D00041FA02F043EAE07306E041FA02F3D04045
:1008E000C2F1200291400843194670470029A8BF71
:1008F0007047401C490008BF20F00100704710B449
:10090000B0FA80FC00FA0CF050EA010404BF10BCFD
:10091000704749B1CCF1200421FA04F411FA0CF12A
:1009200018BF012121430843A3EB0C01CB1D4FEA63
:1009300000614FEA102042BF002010BC704700EB5E
:10094000C35010440029A4BF10BC7047401C49008C
:1009500008BF20F0010010BC704710B5141E73F1E1
:10096000000408DA401C41F1000192185B411A436F
:1009700001D120F0010010BD2DE9F04D92469B46BB
:1009800011B1B1FA81F202E0B0FA80F22032904661
:10099000FFF78BFF04460F4640EA0A0041EA0B01CD
:1009A00053465A46084313D0114653EA010019D062
:1009B000C8F140025046FFF7D7FB05460E465046A9
:1009C00059464246FFF771FF084305D0012004E075
:1009D00020463946BDE8F08D0020054346EAE07622
:1009E0002C4337430A986305E40AA0EB0800002271
:1009F000FD0A44EA47540A3002D500200146E9E7DF
:100A0000010510196941DDE9084500196941BDE892
:100A1000F04DA2E7064C074D06E0E06840F0010308
:100A200094E8070098471034AC42F6D3FFF784FBF4
:100A3000EC6400080C65000830B50C4B00211C78F4
:100A40004518425C6D78AA420ED1491C0329F7DB98
:100A5000074A00780021555CA84202D1E8B218701C
:100A600030BD491C0529F6DB204630BD3D00002085
:100A7000380000202DE9F047DFF82091DFF814A1BD
:100A8000DFF81C81D9E90047BAF80020D8E9000155
:100A9000414D87F00046802A62D007DCA2B1102ABF
:100AA00057D0202A6CD0402A63D156E03D4DB2F594
:100AB000805F12D0B2F5005F3AD0B2F5804F19D006
:100AC000B2F5004F55D124E00020286002460346CD
:100AD0000146686000F048FA4BE0334BD3E900234D
:100AE000FFF766FE45D2D8E9000100222B46FFF74A
:100AF0003EFC0BE02D4BD3E90023FFF771FE38D20B
:100B0000D8E9000100222B46FFF7D2FCC8E900011A
:100B10002FE027483946D0E900232046FFF748FE5A
:100B200027D2D9E9000100222B46FFF720FC0DE077
:100B300020483946D0E900232046FFF751FE18D25D
:100B4000D9E9000100222B46FFF7B2FCC9E90001F8
:100B50000FE0FFF7E2FD28600AE081F00041F8E7CE
:100B600020463146FFF7D9FD2860204639460EE081
:100B70006860BAF80010BDE8F0470FA003F08AB92A
:100B800020463946FFF7C9FD286020463146FFF769
:100B9000C4FDEDE7840000200400002018000020C0
:100BA000100000200000F03F400000205000002016
:100BB000480000205800002025782E2E2E0A000024
:100BC00070B5374804F0A4F9002867D135A003F0C8
:100BD00061F9782004F0A2FD00284FD037A000BFB3
:100BE00003F058F9782004F04BF9002848D03BA0D6
:100BF00003F050F903F0E4FC002843D043A000BF09
:100C000003F048F95048044603F0C0FF0546E01CD5
:100C100003F0BCFF45EAC005A01D03F0B7FF45EA9D
:100C2000801080B203F0A8FD00282DD047A000BF9F
:100C300003F030F9642004F031FD002826D04FA0E5
:100C400003F028F940F2731003F092FB00281FD044
:100C500053A000BF03F01EF9642003F05BFD0028E1
:100C600018D05BA003F016F9012004F03DFC002829
:100C700012D062A0BDE8704003F00CB96BA0AFE7E2
:100C800073A0B5E77BA0BBE787A0D1E790A0D7E72B
:100C900099A0DFE7A1A0E5E7A9A0EBE770BD000000
:100CA0007C0000206D70755F696E697420737563D8
:100CB0006365737366756C0A000000006D70755F84
:100CC0007365745F73656E736F72206572726F7295
:100CD000202E2E2E2E2E2E0A000000006D70755F25
:100CE000636F6E6669677572655F6669666F2063BC
:100CF0006F6D65206163726F7373206572726F72BE
:100D0000202E2E2E2E2E2E0A00000000646D705F05
:100D10006C6F61645F6D6F74696F6E5F647269762A
:100D200065725F6669726D7761726520636F6D656C
:100D3000206163726F7373206572726F72202E2E42
:100D40002E2E2E2E0A0000009A000020646D705F87
:100D50007365745F6F7269656E746174696F6E201C
:100D6000636F6D65206163726F7373206572726F5C
:100D700072202E2E2E2E2E2E0A0000006D70755F12
:100D80007365745F73616D706C655F72617465200B
:100D90006572726F72202E2E2E2E2E2E0A000000EB
:100DA000646D705F656E61626C655F6665617475C8
:100DB000726520636F6D65206163726F7373206568
:100DC00072726F72202E2E2E2E2E2E0A0000000020
:100DD000646D705F7365745F6669666F5F7261747E
:100DE0006520636F6D65206163726F737320657238
:100DF000726F72202E2E2E2E2E2E0A000D0A6D706E
:100E0000755F7365745F646D705F73746174652082
:100E1000636F6D65206163726F7373206572726FAB
:100E200072202E2E2E2E2E2E0A0000006D70755F61
:100E30007365745F73656E736F7220636F6D706C32
:100E4000657465202E2E2E2E2E2E0A0A000000001C
:100E50006D70755F636F6E6669677572655F6669F1
:100E6000666F20636F6D706C657465202E2E2E2E5C
:100E70002E2E0A00646D705F6C6F61645F6D6F741D
:100E8000696F6E5F6472697665725F6669726D77AD
:100E900061726520636F6D706C657465202E2E2EF7
:100EA0002E2E2E0A00000000646D705F7365745F63
:100EB0006F7269656E746174696F6E20636F6D70B7
:100EC0006C657465202E2E2E2E2E2E0A000000003A
:100ED0000D0A6D70755F7365745F73616D706C651D
:100EE0005F7261746520636F6D706C657465202E30
:100EF0002E2E2E2E2E0A0000646D705F656E6162CC
:100F00006C655F6665617475726520636F6D706C8A
:100F1000657465202E2E2E2E2E2E0A00646D705FB5
:100F20007365745F6669666F5F7261746520636F75
:100F30006D706C657465202E2E2E2E2E2E0A0000EC
:100F40000D0A6D70755F7365745F646D705F7374A7
:100F500061746520636F6D706C657465202E2E2E34
:100F60002E2E2E0A000000002DE9F04114461E46E8
:100F7000002205460F461346FFF732FC06D22846EC
:100F80003946FFF7E9FB0246002106E087F0004101
:100F90002846FFF7E1FB02460121002000F028F877
:100FA0000022134620463146FFF71AFC204605D2A0
:100FB0003146FFF7D1FB0246002105E086F00041F3
:100FC000FFF7CAFB02460121BDE8F041012000F015
:100FD0000FB80000010005D0012802D102480068C6
:100FE000406A70470148FAE7AC0200206C0200201A
:100FF00030B50C4B00251C6830B1012803D161B11C
:10100000E5631868026430BD19B1656318688263CE
:1010100030BD62631868856330BDE263186805649B
:1010200030BD0000EC0200202DE9F0470546481CC9
:10103000FFF752FB814610480F460078FFF74CFB44
:1010400006468846E86BFFF7A0FBD5E902238A46EF
:101050000446FFF730FA32464346FFF7A1FA4A4604
:101060003B46FFF72BFA22465346FFF780F9FFF77E
:10107000CFFBE863BDE8F0872100002010B500F148
:101080002C0C029C017000214162C16181628CE8DC
:101090001E00C163016410BD70B514461D460646AE
:1010A0000022084B20462946FFF79AFB08D200226F
:1010B000054B20462946FFF77BFB01D2C6E90445D4
:1010C00070BD00000088D3C00088D340C0E902236F
:1010D000704700002DE9F047044608300FC8FFF7BD
:1010E000E7F9FFF795FB6062A66A05463146FFF710
:1010F000BCF80746A0613948854207D23848854286
:1011000004DA2946E069FFF75EF8E0613549E069F5
:10111000884202DC3449884200D9E16127623946BD
:10112000A06BFFF7A8F88046E169606BFFF7A3F8B2
:1011300007462946206BFFF79EF83946FFF743F82C
:101140004146FFF740F8C4E90A56D4F840A081466A
:101150005046FFF71AFB054624480E462449D0E9BD
:101160000023174698460020FFF7A2F92A46334687
:10117000FFF7A4F905460E464846FFF706FB3A4638
:101180004346FFF79BF92A463346FFF7F0F8FFF78F
:101190003FFB5146E063FFF768F8164DA84201DCBB
:1011A000E06B04E029465046FFF70DF8E063514636
:1011B000FFF75BF81049884201D8E06B04E029464C
:1011C0005046FFF752F8E0630C492064884202DC85
:1011D0000B49884200D9E163BDE8F087000016C3DF
:1011E0000000164300007A4400007AC4300000205A
:1011F0000000F03F0000C8430000C8C30000A04446
:101200000000A0C410B502F0BFF902F005FB0149CF
:10121000088010BD84000020FEE770472DE9F05FD4
:1012200090F821100024022903D0042181630124B5
:1012300085E001680A6822F00E020A6001680A6807
:1012400022F001020A603F4E3E4FB215DFF8F4C0B3
:10125000DFF8F090DFF8ECA0DFF8E8B0DFF8E4E0CA
:101260000168783F13011502ACF1640CA9F1500933
:10127000AAF13C0AABF1280BAEF1140E4FF4801822
:10128000B14227D9B9420ED0614512D049451DD08F
:10129000514518D0594518D0714501D1424615E045
:1012A000294EB14201D1012210E0274E1436B1423D
:1012B00001D110220AE0244E2836B14206D0224A3B
:1012C0003C32914201D11A4600E02A461E49091FCC
:1012D0000A602BE0B94213D0614517D0494522D0AE
:1012E00051451DD059451DD0714501D142461AE0E6
:1012F000B14202D14FF0807215E0134EB14201D1DC
:10130000012210E0104E1436B14201D110220AE041
:101310000D4E2836B14206D00B4A3C32914201D1E3
:101320001A4600E02A46074980394A60012180F8C0
:101330002110002180F82010416B01B18847204620
:10134000BDE8F09F800002400804024070B50446EA
:1013500000F008F90546601C02D0044800780444F7
:1013600000F000F9401BA042FAD370BD88000020B5
:101370002DE9F84FDFF8B8A100220AF1040B14465A
:1013800001274FF00F090BF1040E00BF0B6807FA9D
:1013900004F52B40AB4274D1DFF898C14E68A6EB40
:1013A0000C0866452BD00DDC032E34D005DC36B39B
:1013B000012E19D0022E2FD11BE0112E16D0122E85
:1013C0002AD119E0B8F5881F19D006DCB8F5803F9E
:1013D00015D0B8F5801F1FD111E0B8F5001F0ED051
:1013E000B8F5041F18D10AE0CA6815E0CA68121DD2
:1013F00012E0CA6808320FE0CA680C320CE08A6852
:101400002AB1012A4FF0080203D0456104E004220A
:1014100002E0056100E00022FF2B01D8064601E052
:1014200000F104064FEA840501D9A5F12005D6F89C
:1014300000C009FA05F82CEA080C02FA05F54CEA96
:10144000050CC6F800C04D68ED006AD53A4DAE698E
:1014500046F00106AE61AD6924F0030605F0010512
:101460000095364D06EB050CDCF80850A6074FEA50
:10147000167809FA08F6B543314EB04202D100267B
:101480001AE04EE02F4EB04201D1012614E02E4E5C
:10149000B04201D102260FE02C4EB04201D103260A
:1014A0000AE02B4EB04201D1042605E0294EB0429D
:1014B00001D1052600E0062606FA08F62E43CCF8F0
:1014C00008604D68DAF80060ED03554601D51E430B
:1014D00000E09E432E604D68AD0305D5DBF800604B
:1014E0001E43CBF8006004E0DBF800509D43CBF8CE
:1014F00000504D68DEF80060ED02754601D51E43D0
:1015000000E09E432E604D68AD0205D5084D0C35B8
:101510002E681E432E6004E0054E0C3635689D4350
:101520003560641C102CFFF431AFBDE8F88F00006B
:1015300000040140000011100010024000000140B2
:1015400000080140000C014000100140001401405F
:1015500000180140001C01400AB1016170470904F4
:10156000FBE7000001488068704700008800002009
:1015700070B504001BD094F83D00002520B984F814
:101580003C50204600F042FA242084F83D002068B8
:10159000016821F00101016000F0CAFB404A616866
:1015A000914201D83F4900E03F49884201D20120E1
:1015B00070BD3E492368B0FBF1F159606368934206
:1015C00006D94FF4967359434FF47A73B1FBF3F194
:1015D0002368491C19626168914210D84900401E75
:1015E000B0FBF1F2521CC2F30B02042A01D2042018
:1015F00022E0B0FBF1F0401CC0F30B001CE0A3683C
:10160000CBB301EBC10202EB0116421EB2FBF6F2B4
:10161000521C42F48042120536D06BB301EBC1027A
:1016200002EB0111401EB0FBF1F0401CC0F30B00B7
:1016300040F4804040F400402168C861D4E90701CB
:10164000084321680860D4E90310084321688860D2
:10165000D4E9050108432168C8602068016841F0A9
:10166000010101602564202084F83D00256384F891
:101670003E50002070BD00E008E001EB4106421E34
:10168000B2FBF6F2521CC6E70120D5E701EB41019F
:10169000401EB0FBF1F0401CC0F30B00CAE7000095
:1016A000A086010080841E0000093D0040420F001A
:1016B0002DE9FF4F83B09A46DDE911879346044632
:1016C000DDF84090FFF74EFF054694F83D002028D6
:1016D00072D1192301227B492046009501F059FC63
:1016E0000028F5D194F83C00012865D0012084F849
:1016F0003C0020680168C90703D1016841F001017D
:1017000001602068016821F400610160222084F8F2
:101710003D00402084F83E0000262664C4F8249052
:10172000A4F82A806848E062608D2085CDE90075C4
:1017300053465A462046049901F03BFB28B1206CE1
:1017400084F83C60042851D075E0208DDFF87C815E
:1017500068B1012814D00228206801681ED041F425
:101760008061016020684169806900909BE0206889
:10177000416981690091016841F40071016092E062
:101780002068016821F48061016072B620684169B7
:1017900081690091016841F400710AE041F400613F
:1017A000016072B62068416981690091016821F485
:1017B0008061016062B676E081E0032850D801289C
:1017C0000BD002283B464FF00002414620460095D0
:1017D00012D001F0DEFB70BB13E02A4639462046EA
:1017E00001F04CFC30B1206C202824D0012007B03F
:1017F000BDE8F08F20684BE001F0CBFBD8B972B6A2
:101800001BE02068016821F48061016072B62068E5
:101810000169606A421C62620170208D401E208551
:10182000608D401E60853B46002241462046009563
:1018300001F0AFFB08B10320D9E72068016841F44B
:101840000071016020680169606A421C6262017077
:10185000208D401E2085608D401E608562B6C9E7E0
:101860002A463946204601F009FC0028BBD12068F1
:101870000169606A421C62620170208D401E2085F1
:10188000608D401E608520684169C94349070AD4BC
:101890000169606A421C62620170208D401E2085D1
:1018A000608D401E6085208D002886D1202084F820
:1018B0003D0084F83E6084F83C60002097E70220F9
:1018C00095E70000020010000000FFFF0400010087
:1018D0002DE9FF4F83B09A46DDE911879346044610
:1018E000DDF84090FFF73EFE064694F83D002028C4
:1018F0007DD11923012243492046009601F049FB7E
:1019000000287CD194F83C00012878D0012084F88C
:101910003C0020680168C90703D1016841F001015A
:1019200001602068016821F400610160212084F8D1
:101930003D00402084F83E0000252564C4F8249032
:10194000A4F82A803048E062608D2085CDE90076D9
:1019500053465A462046049901F0A4FA80B3206CFD
:1019600084F83C50042848D008E0324639462046E6
:1019700001F0B5FB30B1206C042839D0032007B04A
:10198000BDE8F08F606A411C6162216800780861DF
:10199000208D401E80B22085618D491E61852168A1
:1019A0004A69D24352070BD468B1606A421C626232
:1019B00000780861208D401E2085608D401E608566
:1019C000208D0028D1D132463946204601F0BAFA9E
:1019D0000028D0D154F83D0B016841F4007101603A
:1019E000202004F81E09E57765770020C7E706E0A8
:1019F0002068016841F4007101600120BFE7022006
:101A0000BDE70000020010000000FFFF00B5006805
:101A10000C4985B0884213D14FF4406000901220E9
:101A200001900320039069460748FFF7A1FC07488F
:101A3000C16941F48001C161C06900F48000049073
:101A400005B000BD00580040000C014000100240ED
:101A50000248816802781144816070478800002044
:101A6000074810B5016841F010010160032000F043
:101A70009DF8002000F006F800F024F8002010BDCA
:101A80000020024070B50D4D04464FF47A7128785D
:101A9000B1FBF0F00A490968B1FBF0F000F02DFB52
:101AA00048B9102C07D200222146501E00F05EF8E3
:101AB00000206C6070BD012070BD00008800002017
:101AC00094000020214808B5816941F0010181613D
:101AD000816901F001010091C16941F08051C1614A
:101AE000C06900F080500090032000F05FF80022F1
:101AF00011466FF00B0000F039F8002211466FF02C
:101B00000A0000F033F8002211466FF0090000F0DF
:101B10002DF800221146501F00F028F8002211462F
:101B2000101F00F023F800221146901E00F01EF84E
:101B300000221146501E00F019F80548416821F0B6
:101B4000E06141F00071416008BD000000100240FA
:101B50000000014000F01F02012191404009800077
:101B600000F1E020C0F8001170470000F0B40E4B07
:101B70001B680C46C3F30223C3F10705042D00D9EB
:101B80000425191D072901D2002300E0DB1E0126D0
:101B900006FA05F1491E214099409E40761E1640E6
:101BA0003143F0BC01F096BC0CED00E0064900F0BA
:101BB000070208684FF6FF03184040EA0220034A74
:101BC00010430860704700000CED00E00000FA05CB
:101BD0002DE9F047DFF83C8105460E46D8F80000B5
:101BE00000F00700B0420CD2D8F8001021F0070135
:101BF0003143C8F80010D8F8000000F00700B042E8
:101C000063D12878444C800705D56068A96820F026
:101C1000F000084360602878C00745D06868012854
:101C200016D02168022816D0890700294DDA61688C
:101C300021F0030101436160FFF794FC69680746E6
:101C400041F2883001290FD00229814619D027E0BE
:101C500021688903E9E78901E7E700BFFFF782FC14
:101C6000C11B494501D918E081466068C0F3810075
:101C70000128F3D118E000BFFFF774FCC11B4945F0
:101C80000BD86068C0F381000228F5D10CE000BFDA
:101C9000FFF768FCC11B494502D90320BDE8F08766
:101CA000606810F00C0FF3D1D8F80010404601F036
:101CB0000701B1420BD9016821F0070131430160EE
:101CC000006800F00700B04201D00120E6E7287864
:101CD000400705D56068E96820F4E060084360606B
:101CE0002878000706D56068296920F4605040EA2A
:101CF000C100606000F03CF86168084AC1F303115C
:101D0000515CC840064908600020FFF7BBFE002078
:101D1000C4E7000000200240001002408C58000878
:101D200094000020014800687047000094000020E3
:101D30000448054900684968044AC1F30221515C1E
:101D4000C840704794000020001002409C580008D2
:101D50000448054900684968044AC1F3C221515C3E
:101D6000C840704794000020001002409C580008B2
:101D700012A185B00FC98DE80F0014A0144A0068A5
:101D800004905168134801F00C03042B10D0082B69
:101D90000ED1C1F38343C9031DF803000AD551686E
:101DA00004AAC1F34041515C0A4A5043B0FBF1F030
:101DB00005B0704708494843FAE7000002030405EC
:101DC000060708090A0B0C0D0E0F10100102000087
:101DD0000010024000127A0000093D002DE9F84F82
:101DE00004460078B94DC00748D06868C0F3810048
:101DF000012807D06868C0F38100022809D168680B
:101E0000C00306D52868800338D5606800286FD0E5
:101E100034E06068B0F5803F0BD010B1B0F5A02F72
:101E200011D0286820F480302860286820F48020B1
:101E300002E0286840F480302860606888B1FFF7CD
:101E400091FB064609E0286840F480202860F0E70E
:101E5000FFF788FB801B642875D828688003F7D5B6
:101E60000CE0FFF77FFB064605E000BFFFF77AFBBB
:101E7000801B6428F0D828688003F7D42078944E1B
:101E800080074FF001094FF000083BD5686810F05B
:101E90000C0F07D06868C0F38100022809D1686878
:101EA000C00306D42868800714D5206901281FD1F3
:101EB00010E02069B0B1C6F80090FFF753FB074669
:101EC00005E000BFFFF74EFBC01B0228C4D82868FE
:101ED0008007F7D52868616920F0F80040EAC10062
:101EE00028600FE0C6F80080FFF73CFB074606E0DD
:101EF000E9E000BFFFF736FBC01B022823D82868A3
:101F00008007F7D4207800072CD57248A169D9B191
:101F1000C0F80090FFF726FB074604E0FFF722FB1E
:101F2000C01B02280FD8686A8007F7D56A484FF4AB
:101F3000FA510068B0FBF1F0009000BF0098411E1C
:101F40000091FAD20EE080E0C0F80080FFF70AFBB3
:101F5000074604E0FFF706FBC01B022875D8686A35
:101F60008007F7D42078400760D5E8690027C000D3
:101F700008D4E86940F08050E861E869012700F082
:101F80008050009055480168C90513D40168834604
:101F900041F480710160FFF7E5FA824606E000BF78
:101FA000FFF7E0FAA0EB0A0064284ED8DBF8000047
:101FB000C005F5D5E06801280AD008B1052813D07E
:101FC000286A20F001002862286A20F0040002E05C
:101FD000286A40F001002862E06841F2883B98B12D
:101FE000FFF7C0FA82460BE0286A40F0040028623E
:101FF000EEE700BFFFF7B6FAA0EB0A0159455AD841
:10200000286A8007F6D50CE0FFF7ACFA824605E0B7
:10201000FFF7A8FAA0EB0A0159454CD8286A8007B7
:10202000F6D41FB1E86920F08050E861E06988B318
:102030006968C1F38101022945D00228C6F8608091
:1020400004D0FFF78FFA044638E034E0FFF78AFA4D
:10205000074604E0FFF786FAC01B02282BD8286841
:102060008001F7D4206AB0F5803F05D16868A16887
:1020700020F4003008436860D4E908010843696827
:1020800021F4741108436860C6F86090FFF76AFA9B
:10209000044606E015E000BFFFF764FA001B0228C3
:1020A00009D828688001F7D50BE000BFFFF75AFA7E
:1020B000001B022802D90320BDE8F88F28688001A0
:1020C000F4D40020F8E70120F6E7000000100240F9
:1020D0000000424280044242940000200070004010
:1020E0004FF0E0210428086903D020F004000861C3
:1020F000704740F00400FAE7704710B5401EB0F199
:10210000807F01D3012010BD4FF0E02460610F21DA
:10211000601701F0DFF90020A06107202061002096
:1021200010BD10B5FFF7E8FF10BD7047704710B540
:1021300090F83C20012A25D0012280F83C20CA6872
:102140008C6822F4407222434C6822F4806222435D
:102150000C6822F4006222430C6922F4805222436C
:102160004C6922F4005222438C6922F480422243BB
:1021700022F40041026800232143516480F83C307E
:10218000002010BD022010BD30B590F83C20012A7F
:1021900020D0012280F83C20022380F83D300368E3
:1021A0005C6824F070045C6003685C680D682C4314
:1021B0005C6003689C6824F080049C6003689C68F1
:1021C00049680C439C6080F83D20002180F83C1059
:1021D000084630BD022030BD10B5040003D094F88D
:1021E0003D0010B107E0012010BD002084F83C0044
:1021F000204600F00DF8022084F83D00211D2068E3
:1022000001F07AFB012084F83D00002010BD0000A1
:1022100008B500680B49884212D10B48816941F426
:10222000006181618069002200F400600090114625
:102230001920FFF79BFCBDE808401920FFF78ABC76
:1022400008BD0000002C0140001002400168CA686F
:1022500042F00102CA600068016841F001010160BA
:102260000020704770B5044690F83C00012817D054
:10227000012584F83C50022084F83D0020688268E3
:1022800022F0770222F47F4282600868502837D01B
:102290000DDC202859D005DC88B3102841D151E04D
:1022A000022070BD302853D040283AD13FE060284A
:1022B0002ED070280BD0B0F5805F03D0B0F5005F52
:1022C0002FD110E02068816821F0070115E0CB686C
:1022D000D1E90121206801F060FB2168886840F0A5
:1022E000770088601DE0CB68D1E90121206801F00A
:1022F00054FB2068816841F48041816011E01EE058
:10230000CA684968206801F01DFC5021206806E079
:10231000CA684968206801F026FC6021206801F045
:1023200046FB84F83D50002084F83C0070BDCA682C
:102330004968206801F006FC40212068EFE7002191
:102340002068ECE710212068E9E720212068E6E713
:1023500030212068E3E72DE9F0410D46040003D069
:1023600094F83D0018B108E00120BDE8F08100209C
:1023700084F83C00204600F039F8022084F83D0043
:102380002068816821F007018160211D206801F02B
:10239000B3FA226890689169166A2B68AF690343A3
:1023A00040F20330814341EA0721A868EF690843FE
:1023B0004FF6FC418843E96840EA07200143286959
:1023C0002F6A000140EA0730084369686D6926F00A
:1023D000AA0646EA051529439360226890612068A1
:1023E0000162012084F83D000020BEE710B5154CC5
:1023F000036800211448C02286B0A3420DD1C369EE
:1024000043F00203C361C069CDE9002100F002007E
:102410000490029169460D480FE00D4CA3420ED185
:10242000C36943F00403C361C069CDE9002100F032
:1024300004000490029169460648FEF799FF06B031
:1024400010BD0000000400400010024000080140E0
:1024500000080040000C014010B50446006891B12E
:10246000042904D00122002101F08CFA2068012205
:102470005FF0040101F086FA2068016841F0010173
:102480000160002010BD01220021F3E7704770B504
:102490000446006801694FF00005C943890715D457
:1024A000C168C943890711D4E91E01610120207761
:1024B000206880698007204602D0FFF7E7FF04E02C
:1024C00000F0ACF8204600F041F92577206801695A
:1024D000C943490717D4C168C943490713D46FF0EA
:1024E00004010161022020772068806910F4407F98
:1024F000204602D0FFF7CAFF04E000F08FF8204624
:1025000000F024F9257720680169C943090716D42A
:10251000C168C943090712D46FF0080101610420A2
:1025200020772068C0698007204602D0FFF7AEFF01
:1025300004E000F073F8204600F008F925772068E1
:102540000169C943C90617D4C168C943C90613D470
:102550006FF010010161082020772068C06910F435
:10256000407F204602D0FFF791FF04E000F056F8CC
:10257000204600F0EBF8257720680169C943C907B8
:1025800008D1C168C943C90704D1891E0161204629
:1025900000F0FAF820680169C943090609D4C16846
:1025A000C943090605D46FF0800101612046FFF799
:1025B000BCFD20680169C943490609D4C168C94303
:1025C000490605D46FF040010161204600F0FAF998
:1025D00020680169C94389060BD4C168C9438906CB
:1025E00007D46FF0200101612046BDE87040FFF77D
:1025F0009DBD70BD1FB500680649884209D14FF4E2
:102600007070009002200190039069460248FEF726
:10261000AFFE1FBD0034014000100140704770B58F
:10262000044690F83C000D4601280DD0012684F8A0
:102630003C60022084F83D0042B1042A18D0082AE8
:102640002AD00C2A4DD139E0022070BD206801F05B
:10265000B7F92068816941F00801816120688169CA
:1026600021F004018161206881692A69114311E028
:10267000206801F0D5F92068816941F40061816129
:102680002068816921F480618161206881692A69FB
:1026900041EA0221816124E0206801F0F7F9206815
:1026A000C16941F00801C1612068C16921F00401DC
:1026B000C1612068C1692A69114311E0206801F0F5
:1026C00019FA2068C16941F40061C1612068C169DB
:1026D00021F48061C1612068C1692A6941EA02214F
:1026E000C16184F83D60002084F83C0070BD10B5E5
:1026F000040003D094F83D0010B107E0012010BDA4
:10270000002084F83C00204600F00CF8022084F8F9
:102710003D00211D206801F0EFF8012084F83D0004
:10272000002010BD08B500680649884208D1064857
:10273000816941F400518161806900F4005000908A
:1027400008BD000000340140001002407047000046
:1027500010B504460068012201F014F90849206808
:10276000884202D00749884203D1416C41F40041BC
:1027700041642068016841F001010160002010BD42
:10278000002C0140003401402DE9FC5F00687E49C7
:1027900088427DD17D4C2068FDF78DFF02460B46B7
:1027A0007B48FEF793FC6068FDF785FF024678489A
:1027B0000B4648300090FEF789FC764D7649DFF8ED
:1027C000DCA128780978DFF8D8B1764E88427DD12F
:1027D0004FF06408B8FBF0F0FDF77EFF04460F46AB
:1027E0000020FEF7F7FBFDF777FFDFF8BC91D9E992
:1027F0000023FDF75DFE22463B46FDF75FFE5C468B
:10280000C4E900012978B8FBF1F0FDF765FF074640
:1028100088460120FEF7DEFBFDF75EFFD9E90223C3
:10282000FDF746FE3A464346FDF748FEC4E902017D
:10283000D4E90001002257465346FDF7D1FF0AD2E2
:10284000D4E900010022594BFDF7B2FF03D2D4E9CD
:102850000001C6E90001D4E9020100223B46FDF770
:10286000BFFF0AD2D4E902010022504BFDF7A0FFBE
:1028700003D2D4E90201C6E902014D4801684FF0D4
:102880007E500C46FDF7F1FCFDF77FFF8B4600E024
:1028900078E0484F8046D7E90023FDF70FFE8146D8
:1028A0008A462046FDF771FF3E4B01910446D3E96D
:1028B0000023FDF703FE4A465346FDF758FD3E4E02
:1028C00081468A46C6E90001404600E03DE0D7E97E
:1028D00002235946FDF7F2FD324B83468846D3E981
:1028E000022320460199FDF7E9FD5A464346FDF7CC
:1028F0003EFDC6E90201C7E90201C7E9009A0020CE
:10290000FEF768FBFDF7E8FE274CC4E90001012053
:10291000FEF760FBFDF7E0FEC4E90201D6E9002303
:102920001B48FEF7B9FBD6E902230098FEF7B4FB7B
:102930001748FEF7CFFB0098FEF7CCFB04221F4997
:102940001F4800F02FF900202870C1B21048FEF790
:102950006BFB29780098FEF767FB0D4ED6F88400D4
:10296000FDF713FF04460F46F06BFDF70EFF2246FE
:102970003B46FEF7F9FAFEF745FCFEF77BF82878B0
:10298000401C2870BDE8FC9F002C01400400002082
:10299000F800002020000020210000200088D3C083
:1029A0008801002098010020D80000200088D34032
:1029B0000C000020A8010020B801002060000020C9
:1029C0002C0300207047704770B5026804461068F9
:1029D000D168536910F00F0F50D003F0010501F4D6
:1029E000907635435DD0C20705D0CA0503D5E26BAA
:1029F00042F00102E263420705D5DA0703D0E26B39
:102A000042F00202E263820705D5DA0703D0E26BE7
:102A100042F00402E263020705D5DA0703D0E26B55
:102A200042F00802E263E26B002A33D0800604D54C
:102A3000880602D5204601F0BEF820684069E16BA7
:102A4000C0F38010090700D428B3204601F0A5F890
:102A50002068416949061AD5416921F04001416168
:102A6000606BA0B11B494163606BFEF7D7FB002888
:102A700010D0606B416BBDE870400847830610D5ED
:102A80008B060ED52046BDE8704001F094B8204674
:102A9000FFF799FF70BD2046FFF795FF0020E06328
:102AA00070BD030606D50B0604D52046BDE8704070
:102AB00001F084B94006F3D54806F1D5D168204627
:102AC00021F04001D160202184F8391000F05BF939
:102AD00070BD00008B3B000870B5040004D094F872
:102AE0003900002510B106E0012070BD84F838508F
:102AF000204600F023F8242084F839002068C168BB
:102B000021F40051C160204601F0A0F8206801695D
:102B100021F4904101612068416921F02A0141615D
:102B20002068C16841F40051C160E563202084F849
:102B3000390084F83A00002070BD000010B500682C
:102B4000154986B0884225D11448816941F48041F5
:102B500081618069124C00F4804004904FF4007051
:102B60000090022001900320039069462046FEF762
:102B7000FFFB00212015CDE90001029169462046A6
:102B8000FEF7F6FB002211462520FEF7EFFF252079
:102B9000FEF7E0FF06B010BD003801400010024013
:102BA0000008014090F83A30202B22D1F9B1F2B15F
:102BB00090F83830012B1CD081628285C2850021BB
:102BC000C163222280F83A2080F838100168CA6870
:102BD00042F48072CA6001684A6942F001024A61A7
:102BE0000068C16841F02001C160002070470120E9
:102BF000704702207047000070B50068274988427E
:102C00004BD127A001F046F92A48FDF715FF002116
:102C1000294C2A4B2A4D2B4A072819D2DFE800F00D
:102C2000040D101F2B383B00002221606160134609
:102C300010461146FEF798F90AE0D3E9000103E0D7
:102C4000D3E9000181F00041FDF767FD206060607D
:102C5000BDE87040042217491B48FFF7A3BFD5E920
:102C600000010E46054681F00041FDF756FD20604B
:102C70002846314609E0D5E9000106460D46FDF734
:102C80004CFD2060304685F00041FDF746FDDEE753
:102C900001201070C8E71170C6E770BD0038014010
:102CA0007561727420696E7465727570742121216A
:102CB00021210A00600000200400002010000020F4
:102CC00018000020000000202C0300202DE9F8430C
:102CD000044690F839001F4616460D46202850D16C
:102CE000A5B19EB194F8380001284AD0012084F89B
:102CF00038004FF00008C4F83C80212084F83900E7
:102D0000FEF730FCA6848146E68426E00120BDE87B
:102D1000F883E08C401EE084A0684B46B0F5805FED
:102D20004FF000024FF080012046009703D001F0E1
:102D300076F8E8B90DE001F072F8C8B92888216882
:102D4000C0F308004860206908B16D1C05E0AD1CA7
:102D500003E0216815F8010B4860E08C0028D8D109
:102D60004B46002240212046009701F058F808B158
:102D70000320CCE7202084F8390084F83880002034
:102D8000C5E70220C3E77047FEE701684A69D243FE
:102D900052050CD46FF480624A6104210164002161
:102DA00040F8301F20224273017301207047002039
:102DB00070472DE9F84F0446006889460B9D01686D
:102DC0009846174641F4806101602068016841F42B
:102DD0008071016000954FF0011A00225146204693
:102DE0000A9B00F0D6F8F0BB216809F0FE000861EC
:102DF0000AF1010B2B46594620460A9A00F0FAF8D0
:102E000018B1206C042812D03AE02068416980692A
:102E100000902A4620460A9900F061F950B1206CD2
:102E200004282DD12068016841F40071016001205F
:102E3000BDE8F88FFEB2B8F1010F09D02168380A59
:102E400008612A4620460A9900F049F90028E6D18F
:102E5000206806612A4620460A9900F040F90028B9
:102E6000DDD1206800E00BE0016841F48071016071
:102E700000950022514620460A9B00F08AF808B1CE
:102E80000320D5E7216809F0FF0040F00100086148
:102E90002B46594620460A9A00F0ACF80028B0D1DB
:102EA000C6E700002DE9F843044600680D46DDE959
:102EB000089701689846164641F4807101604B46B8
:102EC00000224FF001112046009700F062F8E8B9A7
:102ED000216805F0FE0008613B464A461849204635
:102EE00000F088F828B1206C04280FD10120BDE83B
:102EF000F88320684169806900903A464946204637
:102F000000F0EDF820B1206C042813D00320EEE788
:102F1000F5B2B8F1010F09D02168300A08613A46CC
:102F20004946204600F0DBF80028ECD12068056116
:102F30000020DCE72068016841F400710160D5E7FA
:102F40000200010070B516460D4604461AE0204600
:102F5000FFF71BFF08B1012070BD681C12D025B11E
:102F6000FEF700FB801BA8420CD954F8400F40F03C
:102F7000200044F810090020206020216173207394
:102F8000032070BD20684069C0434007DFD40020A3
:102F900070BD2DE9F0471E4690460D460446C1F32C
:102FA0000747DDF8209012E0701C10D02EB1FEF71C
:102FB000D9FAA0EB0900B04209D9002044F8300F3B
:102FC00020216173A07320730320BDE8F08720687F
:102FD000012F0AD0806925EA00000004000C06D009
:102FE00000214145E0D00020EFE74069F3E70121EF
:102FF000F7E700002DE9F0479A4691460D46044652
:1030000000264FF02008C1F307472AE020684069F6
:10301000C043400512D42068016841F4007101608A
:1030200021686FF48060486104202064266384F87E
:103030003D8084F83C600120BDE8F087B9F1FF3F96
:103040000FD0B9F1000F05D0FEF78CFAA0EB0A0102
:10305000494506D944F8306F84F80D802673032063
:10306000EAE72068012F07D0D0F8180025EA000011
:103070000004000CE0D0C9E74069F7E72DE9F04112
:10308000002590460E460446202721E04069C043B3
:10309000C0060CD421686FF01000486125642563D8
:1030A00084F83D7084F83C500120BDE8F0812EB1D9
:1030B000FEF758FAA0EB0800B04209D954F8400FC7
:1030C00040F0200044F80409677025700320ECE705
:1030D00020684169C9434906D8D40020E5E770B5A6
:1030E00016460D4604461AE02046FFF74EFE08B18C
:1030F000012070BD681C12D025B1FEF733FA801B89
:10310000A8420CD954F8400F40F0200044F81009B0
:1031100000202060202161732073032070BD20688F
:103120004069C0430006DFD4002070BD2DE9F041A6
:10313000224886B0816941F010018161816901F006
:1031400010010491816941F004018161816901F0FC
:1031500004010491816941F0080181618069184F7F
:1031600000F00800049000220A213846FEF7F4F926
:10317000DFF85080002210214046FEF7EDF90A20CA
:103180000126CDE900060024022569463846CDE92E
:103190000245FEF7EDF804208DE831006946384617
:1031A000FEF7E6F81020CDE9000669464046CDE975
:1031B0000245FEF7DDF806B0BDE8F08100100240E0
:1031C00000100140000801400E4810B50C49016094
:1031D0000D49416000214FF480428160C0E9031233
:1031E00041618161C1610162FEF7C2F9002805D029
:1031F000BDE81040422105A000F04BBE10BD00000C
:1032000000580040D8010020A08601002E2E2F4338
:103210006F72652F5372632F6932632E6300000053
:1032200010B5184886B0164901601F210024C0E976
:10323000011442F20F71C0E9031444618461FEF786
:10324000CBFF18B1452110A000F023FE4FF48050B1
:10325000009069460B48FFF705F818B14B210AA00A
:1032600000F017FE049404A906480594FEF78CFFAD
:10327000002803D0522104A000F00BFE06B010BDC0
:10328000002C01402C0200202E2E2F436F72652F40
:103290005372632F74696D2E6300000010B51848D7
:1032A0008CB01649016003210024C0E901144FF6D7
:1032B000FE72C0E90324846100910120CDE9014040
:1032C0000F21CDE90341CDE90540CDE9074169462C
:1032D0000B48FFF740F818B16D210AA000F0D9FDA6
:1032E000099409A906480A94FEF74EFF002803D066
:1032F000742104A000F0CDFD0CB010BD000400400E
:103300006C0200202E2E2F436F72652F5372632F95
:1033100074696D2E6300000010B518488CB0164912
:10332000016003210024C0E901144FF6FE72C0E9D8
:103330000324846100910120CDE901400F21CDE9F2
:103340000341CDE90540CDE9074169460B48FFF748
:1033500002F818B18F210AA000F09BFD099409A979
:1033600006480A94FEF710FF002803D0962104A017
:1033700000F08FFD0CB010BD00080040AC02002032
:103380002E2E2F436F72652F5372632F74696D2E2B
:103390006300000010B5344890B032490024C0E901
:1033A000001440F23F61C0E902410461446184615C
:1033B000FFF79DF918B1AA212CA000F06AFD0E9428
:1033C0000EA929480F94FEF7DFFE18B1B12127A0FE
:1033D00000F05FFD6020CDE90004029403940494A2
:1033E00005940022694620480694FFF718F918B1A1
:1033F000BD211EA000F04DFD042269461A48FFF7CA
:103400000EF918B1C22119A000F043FD0822694647
:103410001548FFF704F918B1C72114A000F039FDD1
:103420000C2269461048FFF7FAF818B1CC210FA01A
:1034300000F02FFD0794089409944FF400500A946B
:10344000CDE90B4007A908480D94FEF770FE18B1AE
:10345000D82106A000F01DFD0348FFF7CBF810B0FF
:1034600010BD000000340140EC0200202E2E2F433E
:103470006F72652F5372632F74696D2E63000000A5
:103480000D4810B50B4901604FF4E1314160002156
:1034900081600C22C160C0E904128161C161FFF743
:1034A0001BFB002805D0BDE81040422103A000F01E
:1034B000F0BC10BD003801402C0300202E2E2F43FD
:1034C0006F72652F5372632F75736172742E630070
:1034D000FEE770470907090E002806DA00F00F0022
:1034E00000F1E02080F8141D704700F1E02080F822
:1034F000001470472DE9F14F82B00121ADF80010A2
:103500001E4800224270ADF8001010261C4D4FF0EE
:10351000020A4FF4003B1B4C0F0581464FF6FF7823
:1035200022E000BFBDF800000299084201D05046D9
:1035300000E0584628612660052002F0A1F92760C6
:10354000052002F09DF92660A868400706D599F885
:103550000110BDF80020114389F80110BDF80000EA
:1035600008EA4000ADF80000BDF80000FF28D9D9F6
:10357000BDE8FE4F102002F083B900007C0300205C
:1035800000100140100801402DE9FC5F00258DF876
:1035900000500127ADF80470394EF8043061394C01
:1035A0002078FFF7A7FF6078FFF7A4FF02208DF8CF
:1035B0000000AA46BB46344C1027344D4FF4801807
:1035C0004FF6FF792EE000BF9DF80010584604F832
:1035D00001A019E02F60052002F052F9C5F8008023
:1035E000052002F04DF92F60B068400708D59DF81E
:1035F0000000BDF80410205C08439DF800106054E2
:10360000BDF8041009EA4100ADF80400BDF804005B
:10361000FF28DFD9102002F033F99DF80000401C8C
:103620008DF800009DF800000928CDD308203061F6
:10363000207920B9E07810B9FF20E070207160791E
:1036400080267F2568B1FF2818D1A079FF2815D1E1
:10365000E079FF2812D1207AFF280FD100F018F866
:1036600008E0A079002809D1E079002806D1207A65
:10367000002803D1E67166712572A571BDE8FC9F33
:1036800000100140D00000207C0300201008014001
:1036900070B500F057F800F055F800F053F8284CDA
:1036A0004FF400252561102002F0EAF80120FFF711
:1036B00021FF4320FFF71EFF0020FFF71BFF012023
:1036C000FFF718FF0020FFF715FF0020FFF712FF9C
:1036D0000020FFF70FFF0020FFF70CFF0020FFF78F
:1036E00009FF08262661102002F0CAF800F04AF807
:1036F00000F072F82561102002F0C2F80120FFF7F7
:10370000F9FE4320FFF7F6FE0020FFF7F3FE00204E
:10371000FFF7F0FE5A20FFF7EDFE5A20FFF7EAFE12
:103720005A20FFF7E7FE5A20FFF7E4FE5A20FFF782
:10373000E1FE2661BDE87040102002F0A1B8000053
:103740000010014010B50E4C4FF4002020611020F5
:1037500002F096F80120FFF7CDFE4220FFF7CAFEE7
:103760000020FFF7C7FE0020FFF7C4FE0020FFF790
:10377000C1FE08202061BDE81040102002F080B892
:103780000010014010B5134C4FF4002020610120BF
:10379000FFF7B0FE4420FFF7ADFE0020FFF7AAFEC2
:1037A0000120FFF7A7FE0320FFF7A4FE0020FFF78C
:1037B000A1FE0020FFF79EFE0020FFF79BFE0020E9
:1037C000FFF798FE08202061BDE81040102002F0AD
:1037D00057B800000010014010B50E4C4FF4002007
:1037E0002061102002F04CF80120FFF783FE4D20ED
:1037F000FFF780FE0020FFF77DFE0020FFF77AFE36
:103800000120FFF777FE08202061BDE8104010205E
:1038100002F036B80010014003480449B0F8030034
:10382000C04380B2488070477C030020D000002055
:103830007047704710B5FEF70BF9BDE81040FEF772
:1038400070BC30B58FB00225012004900095102087
:10385000059000244FF4C010CDE908400795684654
:10386000FEF7BCFA00B1FEE70F200A90CDE90B5439
:103870000D9401210AA80E94FEF7AAF900B1FEE703
:10388000FEF750FA4FF47A71B0FBF1F0FEF735FC19
:103890000420FEF725FC00221146501EFEF766F9B3
:1038A0000FB030BD0D48016841F001010160416871
:1038B0000B4A1140416001680A4A114001600168E9
:1038C00021F480210160416821F4FE0141604FF440
:1038D0001F0181600449C003086070470010024066
:1038E0000000FFF8FFFFF6FE08ED00E00148FEF7DC
:1038F000CEBD00002C020020F0B502681C4B1D4D0F
:103900001D4E1E4F1E4C4FF0804C984209D0A042D5
:1039100007D0604505D0A84203D0B04201D0B842DC
:1039200004D122F0700E4A6842EA0E02984209D091
:10393000A04207D0604505D0A84203D0B04201D0D4
:10394000B84203D122F44075CA682A4322F08005A8
:103950004A692A4302608A68C2620A68826298429F
:1039600001D0A04201D10969016301214161F0BD8B
:10397000002C01400004004000080040000C004002
:103980000034014010B50123046A8B409C4304625B
:10399000036A8A401343036210BD10B5846842EA8B
:1039A000032224F47F440A432243826010BD8268CC
:1039B00022F070020A4342F0070181607047000064
:1039C000F0B5026A22F001020262036A4268846969
:1039D000124E24F073050C682C4323F002058B680B
:1039E0002B430D4DA84201D0B04205D123F008076A
:1039F000CB683B4323F00403A84201D0B04205D179
:103A00004D6922F4407215438A692A4342608461F9
:103A1000496841630362F0BD002C0140003401405D
:103A2000F0B5026A22F010020262026A43688469F9
:103A30000D6824F4E64444EA05248D6822F020024F
:103A400042EA05120F4D104EA84201D0B04206D1F5
:103A5000CF6822F0800242EA071222F04002A84218
:103A600001D0B04207D14D6923F4406343EA850396
:103A70008D6943EA8503436084614968816302621A
:103A8000F0BD0000002C014000340140F0B5026A96
:103A900022F480720262026A4368C46922F40072EE
:103AA00024F073050C68124E2C438D6842EA0522FF
:103AB0000E4DA84201D0B04206D1CF6822F4006278
:103AC00042EA072222F48062A84201D0B04207D124
:103AD0004D6923F4405343EA05138D6943EA051306
:103AE0004360C4614968C1630262F0BD002C0140BB
:103AF0000034014030B5026A22F480520262046A46
:103B00004268C3690D6823F4E64343EA05238D68E0
:103B100024F4005444EA0534084DA84202D0084D6C
:103B2000A84204D14D6922F4804242EA85124260E3
:103B3000C36149680164046230BD0000002C01408B
:103B40000034014010B5036A046A24F001040462E1
:103B5000846924F0F00444EA021423F00A020A43C0
:103B60008461026210BD10B5036A23F01003036282
:103B70008369046A23F4704343EA023224F0A00309
:103B800043EA01118261016210BD10B5406A002153
:103B9000C185C184FEF717FF10BD0168CA6822F411
:103BA0009072CA6001684A6922F001024A612021CC
:103BB00080F83A10704710B590F83A10222901D0D9
:103BC000022010BD8168B1F5805F11D00169002924
:103BD00001681FD0496801F07F03816A4A1C826234
:103BE0000B70C18D491E0904090CC18518D02BE04A
:103BF0000269816A002A0268526805D0D2B20A803E
:103C0000816A491C8162ECE7C2F308020A80816A7A
:103C1000891CF7E74A68816A4B1C83620A70E0E7F7
:103C20000168CA6822F02002CA600168CA6822F4EA
:103C30008072CA6001684A6922F001024A6120214B
:103C400080F83A10FEF7D8FF002010BD2DE9F041B2
:103C5000044600680169E26821F4405111430161A2
:103C60002169A0680843616908432168CA6841F274
:103C70000C639A430243CA6020684169A26921F437
:103C80004071114341614C492068642532268842C5
:103C90003CD1FEF75DF800EBC00101EB001061685C
:103CA0008900B0FBF1F7FEF753F800EBC00101EB20
:103CB00000106168B0468900B0FBF1F0B0FBF5F090
:103CC0006FF01801484307EB800106EB0110B0FBD1
:103CD000F5F000F0F006FEF73BF800EBC00101EB59
:103CE000001061688900B0FBF1F0B0FBF5F006EB65
:103CF0000016FEF72DF800EBC00101EB0010616823
:103D00008900B0FBF1F7FEF723F83BE0FEF710F86F
:103D100000EBC00101EB001061688900B0FBF1F716
:103D2000FEF706F800EBC00101EB00106168B04639
:103D30008900B0FBF1F0B0FBF5F06FF018014843DB
:103D400007EB800106EB0110B0FBF5F000F0F00688
:103D5000FDF7EEFF00EBC00101EB00106168890088
:103D6000B0FBF1F0B0FBF5F006EB0016FDF7E0FF5D
:103D700000EBC00101EB001061688900B0FBF1F7B6
:103D8000FDF7D6FF00EBC00101EB00106168890070
:103D9000B0FBF1F0B0FBF5F06FF01801484307EB12
:103DA000800108EB0110B0FBF5F0216800F00F0076
:103DB00030448860BDE8F0810038014090F8391047
:103DC000212901D0022070478168B1F5805F016A26
:103DD0000BD04A1C0262026809785160C18C491EEE
:103DE0000904090CC1840ED017E009880268C1F3E8
:103DF0000801516001690029016A02D0491C016271
:103E0000ECE7891CFBE70168CA6822F08002CA60FF
:103E10000068C16841F04001C160002070472DE991
:103E2000F041984617460E460446069D1DE0681C64
:103E30001BD02DB1FDF796FBA0EB0800A84214D9CA
:103E40002068C16821F4D071C1602068416921F007
:103E500001014161202084F8390084F83A000020F3
:103E600084F838000320BDE8F0812068006836EA55
:103E7000000004D00020B842D9D00020F3E7012090
:103E8000F9E700000148FEF79FBD00002C03002069
:103E9000FEE7FEE70FB4054B10B503A9044A0298EC
:103EA00000F018F810BC5DF814FB0000C14A0008CF
:103EB000D400002002E008C8121F08C1002AFAD16D
:103EC00070477047002001E001C1121F002AFBD19A
:103ED000704700002DE9FF4F8DB00F4605460026C4
:103EE00006E025280BD0DDE90F1290476D1C761CEB
:103EF00028780028F5D111B03046BDE8F08F0024B5
:103F0000A246A1460122EC4900E0044315F8013F16
:103F1000203B02FA03F00842F7D128782A2810D073
:103F20006FF02F022878A0F13001092914D80AEB8C
:103F30008A0102EB410144F0020400EB010A6D1C0E
:103F4000F0E701CF5FEA000A03D544F40054CAF158
:103F5000000A44F002046D1C28782E2817D115F8A9
:103F6000010F44F004042A280ED06FF02F022878A5
:103F7000A0F1300109290AD809EB890102EB4101BE
:103F800000EB01096D1CF2E757F8049B6D1C2878C3
:103F90006C280FD006DC4C2817D068280DD06A2872
:103FA00014D104E0742810D07A280FD10DE044F425
:103FB00000140AE044F4801401E044F440146978E9
:103FC000814202D104F580146D1C6D1C2A786E2A82
:103FD0001FD00CDC632A31D004DC002A8BD0582A95
:103FE00011D1A3E0642A68D0692A0CD165E0732A54
:103FF0002ED004DC6F2A73D0702A04D19BE0752A7E
:104000006FD0782A6ED01046DDE90F129047761CEB
:1040100050E1C4F30250022806D0032809D0042836
:1040200001CF09D0066045E101CFF117C0E9006179
:1040300040E101CF06803DE106703BE117F8040B3B
:104040008DF8000000208DF80100EB46012003E010
:1040500057F804BB4FF0FF3061074FF0000102D466
:104060000DE008F10101884649450FDA8045F8DB8B
:104070001BF808100029F4D108E008F10101884676
:104080008142FADB1BF808100029F6D1DDE90F2385
:10409000AAEB08008146214600F036F9304400EBD7
:1040A000080604E0DDE90F121BF8010B9047B8F198
:1040B0000108F7D221464846F7E00A21C4F302532B
:1040C0004FF0000B0891022B04D001CFC117032B36
:1040D00009D00AE0FF1D27F00707F7E8020108E012
:1040E00032E01FE020E000B2C117042B01D140B242
:1040F000C117031E71F1000307DA4FF0000CD0EB7B
:104100000C006CEB01012D2302E0230504D52B23C9
:104110008DF82430012303E0E30701D02023F7E7E3
:10412000984658E00A2110E010210EE010204FF0D0
:10413000000B08900CE010214FF0000B44F0040439
:104140004FF00809089103E008214FF0000B089197
:10415000C4F30253022B04D001CF0021032B06D05D
:1041600006E0FF1D27F00707F7E8020103E080B231
:10417000042B00D1C0B24FF0000823072BD5702AC2
:1041800007D0DDF820C08CF0100C5CEA0B0C05D0D9
:104190000EE040238DF82430012308E050EA0103AB
:1041A00006D030238DF824308DF825200223984640
:1041B000DDF820C08CF0080C5CEA0B0C0BD150EA47
:1041C000010301D1630706D530238DF824304FF069
:1041D0000108A9F10109582A04D038A20B9208AAB3
:1041E0000A920BE03AA2F9E75B46089AFCF72CFB2F
:1041F0000B9B9B5C0A9A521E0A92137050EA0102B2
:10420000F2D10A98ADEB000000F1200B600702D557
:1042100024F4803401E04FF00109D94502DDA9EB17
:104220000B0000E0002000EB0B0141440890AAEBDA
:10423000010AE00306D4DDE90F232146504600F0D1
:1042400063F806444FF0000908E009A911F80900D5
:10425000DDE90F12904709F10109761CC145F4DB35
:10426000E0030CD5DDE90F232146504600F04CF861
:10427000064404E0DDE90F1230209047761C0899CF
:10428000481E08900029F5DC08E00A980A99007891
:10429000491C0A91DDE90F129047761CBBF1000121
:1042A000ABF1010BF1DC21465046DDE90F2300F0B4
:1042B00019F806446D1C1BE6092801003031323321
:1042C0003435363738396162636465660000000052
:1042D000303132333435363738394142434445463C
:1042E000000000002DE9F041044600251E46174657
:1042F000880404D405E039462020B0476D1C641EB4
:10430000F9D52846BDE8F0812DE9F04104460025A5
:104310001E469046C80301D5302700E020278804B8
:1043200004D505E041463846B0476D1C641EF9D5FA
:104330002846BDE8F08108B560B120208DF8000066
:1043400028208DF8010030208DF8020038208DF8EB
:10435000030004E0A32204216846FBF715FF6A4628
:10436000042140F69E2001F035FA00F06BFF08BDF5
:104370003EB5044602208DF80000CA208DF80100E9
:10438000E3208DF8020009208DF803006A4604211D
:10439000682001F01FFAA3208DF80000610609D5FE
:1043A000C0218DF80110C8218DF80210C2218DF8AE
:1043B000031005E08DF801008DF802008DF8030070
:1043C00014F4C07F09D0C4218DF80410CC218DF8DD
:1043D0000510C6218DF8061005E08DF804008DF853
:1043E00005008DF806008DF808008DF807008DF89F
:1043F00009006A460A2140F6A72001F0EBF9A00760
:104400004FF0D80503D020208DF8000001E08DF892
:1044100000506A46012140F6B62001F0DBF9A00603
:1044200001D5012000E0002000F08EF814F4C07FD8
:104430001ED0E0050AD5B2208DF800008B208DF843
:104440000100B6208DF802009B2009E0B0208DF815
:10445000000080208DF80100B4208DF8020090202B
:104460008DF803006A46042140F6A22001F0B2F95B
:10447000E1074FF40B6022D0F8218DF800106A4656
:10448000012101F0A7F9FA21072000F065FA0720C1
:1044900000F030FA012000F04DFA642000F0F0FA4C
:1044A0004FF4FA7000F0FCFAC821254800F0EAF950
:1044B000282000F0FFF90A2000F00CFA05E08DF842
:1044C00000506A46012101F085F9A00703D5D920E3
:1044D0008DF8000001E08DF800506A46012140F29D
:1044E0003D7001F077F9600701D5012000E0002060
:1044F00000F048F8E00601D5012000E00020FFF7B9
:104500001AFF104D44F00800688100F09BFE002067
:10451000A873600601D50620A87314F4C07F02D0EA
:10452000A87B801DA87314F0140F02D0A87B103054
:10453000A873A00702D0A87B001DA87300203EBD71
:1045400009E3CA026C0300200EB54FF4976310B163
:1045500006A107C901E008A207CA8DE807006A465C
:104560000921184601F036F90EBD0000B8AAB38D36
:10457000B4980D355D000000B8AAAAAAB088C3C5DA
:10458000C700000008B560B1C0208DF80000C2204F
:104590008DF80100C4208DF80200C6208DF80300BC
:1045A00004E08B2204216846FBF7EEFD6A460421F5
:1045B00040F6982001F00EF900F044FE08BD00001E
:1045C000C8234FF48062024940F6F63000F0FCBC8C
:1045D000F45800082DE9F04F89B01746DDE9125272
:1045E00000244B4E884681462C80A246B07B69460B
:1045F00000F0B6FD4FF0FF3B18B1584609B0BDE8DA
:10460000F08F708910F0140F3CD0009909BA21F096
:10461000FF039DF803100B433B6001991B1409BA7B
:1046200021F0FF029DF807105B430A437A6002996C
:104630009DF80B4009BA21F0FF012143B960039CAA
:10464000091424BA24F0FF0C9DF80F4012144CEA10
:10465000040CC7F80CC04FEA2C47494302FB023256
:1046600007FB071111441024A1F17061B1F1007F23
:1046700004D900F0E7FDA5F800A0BEE7298841F4C1
:10468000807129804206694611D50A19A41D138834
:104690005BBAA8F8003053885BBAA8F80230928859
:1046A00052BAA8F804202A8842F008022A8010F49E
:1046B000C07F11D00A19A41D13885BBAA9F8003075
:1046C00053885BBAA9F80230928852BAA9F804203C
:1046D0002A8842F070022A80800716D00C44E078C5
:1046E00000F0C00500F03F016078C00706D0C808A0
:1046F00001F007013268491C02B190476078000759
:1047000003D5716809B1A8098847002076E7000041
:104710006C03002030B5044613A285B007CA8DE8AB
:1047200007004FF0FF35C82C16D8C820B0FBF4F1B5
:10473000491E080A8DF80C008DF80D1003AA0221FD
:1047400040F2162001F046F830B96A460C2140F6D6
:10475000C12001F03FF810B1284605B030BD054832
:1047600084810020F9E70000FEF2ABC4AAF1DFDF8C
:10477000BBAFDFDF6C0300202DE9FF4104463CA006
:1047800004F00303006802903AA0006803903AA086
:1047900006683AA0056802A8C15C8DF80010C4F351
:1047A000C101425C8DF80120C4F38112805C8DF858
:1047B000020003A8C35C8DF80430415C8DF805103D
:1047C000805C8DF806006A46032140F2264001F025
:1047D00001F84FF0FF37E0BB01AA032140F22A4065
:1047E00000F0F8FFA8BBCDE9006560070BD59DF888
:1047F000000040F001008DF800009DF8040040F03A
:1048000001008DF80400A0060BD59DF8010040F0D2
:1048100001008DF801009DF8050040F001008DF8C1
:104820000500E0050BD59DF8020040F001008DF871
:1048300002009DF8060040F001008DF806006A466F
:1048400003214FF4886000F0C5FF10B901AA0321CD
:1048500000E004E040F2314000F0BCFF18B13846FF
:1048600004B0BDE8F081064804810020F8E70000AC
:104870004CCD6C000CC92C003656760026466600DE
:104880006C0300204FF47A7290FBF2F008B54843B5
:10489000010E8DF80010010C8DF80110010A8DF841
:1048A00002108DF803006A4604214FF4AE7000F048
:1048B00091FF08BD0521B0FBF1F008B5010A8DF8A4
:1048C00000108DF801006A4602214FF4AD7000F02F
:1048D00081FF08BD0521B0FBF1F008B5010A8DF894
:1048E00000108DF801006A4602214FF4AC7000F010
:1048F00071FF08BD08B500218DF80010C10702D076
:1049000030218DF80010810705D59DF8001041F089
:104910000C018DF80010400705D59DF8000040F00F
:1049200003008DF800006A4601214FF4A47000F0E6
:1049300051FF08BD08B560B1042800D90420401E0D
:104940008DF800006A46012140F24F1000F042FF4E
:1049500008BD0120F3E700002DE9FC4105464007B2
:104960004FF0FF367CD0B1F5C86F79D80846FBF719
:104970009DFE3E49FBF7B1FC074601A800F0AAFAEC
:104980009DF80400022806D004280DD008282ED057
:10499000102865D134E00E213846FBF7DCFCFBF72C
:1049A000A8FE84B2324907E00D213846FBF7D3FC5C
:1049B000FBF79FFE2F4984B23846FBF75CFCFBF700
:1049C00098FE210A8DF8001080B28DF80140010A8E
:1049D0008DF802108DF80300E8076C4620D02246BF
:1049E00002214FF4EA7000F0F5FEC8BB11E00C2183
:1049F0003846FBF7B0FCFBF77CFE84B21E49DBE7D0
:104A00000B213846FBF7A7FCFBF773FE84B21B496A
:104A1000D2E7A21C02214FF4927000F0DBFEF8B93D
:104A2000A8070DD56A4602214FF4EC7000F0D2FEC3
:104A3000B0B9A21C02214FF4947000F0CBFE78B9FB
:104A4000680710D56A4602214FF4EE7000F0C2FEEE
:104A500030B9A21C02214FF4967000F0BBFE10B1D9
:104A60003046BDE8FC810020FBE700000000484321
:104A7000000040460000C045000040450000C04422
:104A80000521B0FBF1F008B5010A8DF800108DF892
:104A900001006A4602214FF4EF7000F09BFE08BD52
:104AA0000521B0FBF1F008B5010A8DF800108DF872
:104AB00001006A4602214FF4ED7000F08BFE08BD44
:104AC00010B5044605484FF47A730146047001227C
:104AD0000348FEF7FBF8204610BD000098000020B8
:104AE0002C030020FEB507461C4615460E46012045
:104AF000FCF72CFCFF200094CDE901500123324645
:104B000039460548FCF7D4FD002803D003A0FFF781
:104B1000C1F9FF20FEBD0000D80100200D0A484168
:104B20004C5F4932435F4D656D5F5265616420455E
:104B300072726F720D0A0000FEB507461C461546DC
:104B40000E460120FCF702FCFF200094CDE9015045
:104B50000123324639460548FCF7BAFE002803D047
:104B600003A0FFF797F9FF20FEBD0000D801002049
:104B70000D0A48414C5F4932435F4D656D5F577286
:104B8000697465204572726F720D0A0090F9001009
:104B9000002902DD4FF00000704702DA4FF00400F8
:104BA000704790F90110002902DD4FF001007047B5
:104BB00002DA4FF00500704790F90200002802DD8C
:104BC0004FF00200704702DA4FF0060070474FF0D6
:104BD000070070471CB5FCF743FFFEF732FEFEF7F7
:104BE000A5FAFEF7F1FAFEF74BFCFEF757FBFEF7CE
:104BF00093FBFEF715FBFEF7CDFB18218348FDF76D
:104C00002BFC0520FCF7A2FB18218148FDF724FCB2
:104C10000520FCF79BFB7F48FDF718FB00217E4831
:104C2000FDF796FD04217C48FDF792FD08217A48A6
:104C3000FDF78EFD0C217848FDF78AFD77484FF08F
:104C40007E5400902346764A00217648FCF716FAF7
:104C50007548009073482346744A01214830FCF798
:104C60000DFA0A20FCF772FB042271497148FDF726
:104C700099FFFBF7A5FF41F28830FCF767FB0024A2
:104C80006D4EDFF8B891DFF8B8A1DFF8B8B1DFF802
:104C9000B88123E0CDE900A9641CE4B26B4B6C4AF7
:104CA0006C496848FFF796FCBBF90400FBF703FD6D
:104CB0004FF06632684BFBF773FC05460F46D8F899
:104CC0000000FBF762FD2A463B46FBF750FBFBF773
:104CD0009FFDC8F800000120FCF738FB30788442C3
:104CE000D8D3C0B2FBF7F8FC04460D464646D8F8C8
:104CF0000000FBF74AFD22462B46FBF751FCFBF771
:104D000087FD3060FEF7C4FCDFF85081DFF850917A
:104D1000DFF850A149494A48CDE900014B4B4C4AC4
:104D20004C494848FFF756FC47480068FBF72DFD03
:104D3000054644480C46B0F90400FBF7BCFC4FF0B4
:104D40006632454BFBF72CFC2A462346FBF7B0FBAB
:104D5000FBF75EFD44490860012188F800104349D3
:104D6000D1E90263D1E900011F4604460D463246EF
:104D7000FBF79EFBFBF74CFDFBF707FD00224B46C4
:104D8000FBF70EFC00225346FBF70AFC384A394B6E
:104D9000FBF794FB0022384BFBF790FBDFF8DCB00D
:104DA00000225B46FBF7FCFB0122FBF768FCFBF7EC
:104DB0002FFDC8F8080032463B4620462946FBF73F
:104DC000D6FAFBF725FDFBF7E0FC00224B46FBF78C
:104DD000E7FB00225346FBF7E3FB4FF0FF32FBF704
:104DE0004EFC234A234BFBF769FB0022224BFBF7C7
:104DF00065FB00225B46FBF7D3FBFBF709FDC8F818
:104E000004003220FCF7A2FA84E700006C020020C4
:104E1000AC0200202C020020EC020020CDCC8C3F04
:104E20000000A040F80000203333333F0000604012
:104E3000600000202C0300202800002074000020C7
:104E4000760000206A00002024000020700000206E
:104E5000C80100206400002066664040E800002091
:104E600000002A400080494078000020980100207E
:104E7000A7E8482EFF21094000405F4000408F40D6
:104E80002DE9F041124C20F00101002594F8240096
:104E900010B10020BDE8F081A07A4FF0FF3668B174
:104EA0000840277C2074884200D0354641B101205B
:104EB00000F0BAFC00F0C6F938B127743046E9E7D3
:104EC000207D00B1012000F0AFFC2846E2E70000A1
:104ED000A40000200D494A7A42B1012A08D0022AD2
:104EE0000FD0032A0FD04FF0FF307047022200E0AE
:104EF00004220270C97C11B11106C90D0170002095
:104F000070470822F5E71022F3E70000A400002014
:104F10007CB52C4C80208DF8000020686B46012267
:104F2000817C60680078FFF707FE4FF0FF36E8BB32
:104F30006420FCF70BFA00258DF8005020686B46C2
:104F40000122817C60680078FFF7F6FD70BBE57494
:104F5000FF2004F80A0F310C04F8020C04F8010CCD
:104F60006070A180A07120720120A070207665760B
:104F7000E572A572E56025616561A576E576A58394
:104F80004FF4FA6000F0ECFA80B9022000F00AFA5F
:104F900060B92A2000F04CFB40B9322000F07EFBC3
:104FA00020B90020FFF76CFF00B900E003E000200B
:104FB00000F02CFA08B130467CBD002000F0AEFBBA
:104FC00000207CBDA40000202DE9FF4FDFF8B48055
:104FD000064683B098F8250015460F464FF0FF3976
:104FE000002845D1002F43D000242EE0301B082894
:104FF00000DD082080B283463A19014692462046D9
:1050000000F0E8FB18B120A0FEF744FF30E00120DB
:10501000FCF79CF96A465946204600F0E9F800285A
:10502000F1D150465A466946FBF7C0F838B11AA08C
:10503000FEF730FF6FF0010007B0BDE8F08F0120F0
:10504000FCF784F904EB0B0084B2B442CED3280AF7
:105050008DF808008DF80950D8F80000444602ABDE
:10506000817ED8F8040002220078FFF765FD08B1C0
:105070004846E1E7012084F825000698E0840020F6
:10508000DAE70000A40000202072657475726E20BB
:105090002D312E0A000000002072657475726E209A
:1050A0002D322E0A000000002DE9F84305464FF08E
:1050B000FF39282844D80727284C00267DB1012035
:1050C00000F084FA20208DF800004FF00108012D37
:1050D00017D0052D18D88DF8018005201FE000207D
:1050E00000F074FA8DF800608DF8017020686B464E
:1050F0000222817C60680078FFF71EFD00BB2675E8
:1051000029E08DF80160E8E7142D04D802208DF81D
:1051100001000A2003E003208DF80100142000F0B4
:1051200087FA9DF801006B4607EB80108DF80100AF
:1051300020680222817C60680078FFF7FDFC10B1D6
:105140004846BDE8F8830820A072267384F81480CE
:105150000020FFF795FE0020F3E70000A4000020E8
:105160002DE9F843214C0646174694F82400894659
:105170004FF0FF3890B3A07A80B320686B460222CC
:10518000817A60680078FFF7ADFC38BBBDF800009D
:1051900045BAB54202D2002038701FE060684188ED
:1051A000B5EB510F11D9216800786B46497C01227B
:1051B000FFF798FC90B99DF80000C00605D500F0F7
:1051C00041F86FF00100BDE8F8832068F2B24B4669
:1051D000C17A60680078FFF785FC08B14046F2E7C5
:1051E000B5FBF6F0401E38700020ECE7A40000206C
:1051F000F8B516000D464FF0FF371FD0104CA17ABE
:10520000E1B1010A8DF80010C0B28DF8010041191A
:1052100060684289914211D8216800786B46097E06
:105220000222FFF789FC48B92068EAB23346417D83
:1052300060680078FFF756FC002800D03846F8BDBB
:10524000A4000020F8B5564C4FF0FF36A07A002895
:105250007DD000258DF8005020686B460122C17B6F
:1052600060680078FFF768FC002870D120686B4602
:105270000122417960680078FFF75EFC002866D162
:1052800020686B460122017960680078FFF754FCC2
:1052900000285CD194F82400E0B30C208DF80000C5
:1052A00020686B460122017960680078FFF744FCB2
:1052B000002872D13220FCF749F8C0208DF8000098
:1052C000A07AC00702D0E0208DF8000020686B466D
:1052D0000122017960680078FFF72EFC00285CD17C
:1052E000607C18B102208DF8000001E08DF80050BC
:1052F00020686B460122C17B60680078FFF71CFCC8
:1053000028BB8DF8005020686B4601224179606807
:1053100000783EE0FFE704208DF8000020686B462F
:105320000122017960680078FFF706FC78B9A07C5B
:1053300090B9A07AC0070FD05FF060008DF8000030
:1053400020686B46012201796068007800E024E063
:10535000FFF7F2FB08BB01E04020EFE73220FBF74C
:10536000F5FF607C18B101208DF8000001E08DF898
:10537000005020686B460122C17B60680078FFF70F
:10538000DBFB50B92068064B01224179606810337D
:105390000078FFF7D1FB002800D03046F8BD0000B0
:1053A000A400002038B5184C4FF0FF35A17A19B38E
:1053B000022806D0042806D008280ED010281BD1B9
:1053C0000DE0002000E008208DF80000607A9DF8D4
:1053D0000010B0EBD10F04D005E01020F4E7182046
:1053E000F2E7002038BD20686B460122C179606871
:1053F0000078FFF7A1FB08B1284638BD9DF80000F2
:10540000C0086072EDE70000A4000020F8B5354C3C
:105410000546A07CA84201D10020F8BD31484FF0DC
:10542000FF366B46D0E900104FF001020979007891
:1054300035B3FFF757FB70BB9DF800006B4620F0BB
:1054400020008DF800002068012201796068007852
:10545000FFF772FBF8B90320FBF778FF02208DF805
:10546000000094F8220078B382202BE020686B467D
:105470000122017D60680078FFF75EFB58B92EE0DD
:10548000FFF730FB38B9A07AC0079DF8000003D0C1
:1054900040F0200002E00CE020F020008DF8000039
:1054A00020686B460122017960680078FFF744FBB1
:1054B00008B13046F8BD0320FBF748FF94F82200FE
:1054C00000B180208DF8000094F823000028CDD092
:1054D0009DF8000040F030008DF80000C6E7A5748C
:1054E0009AE70000A400002038B51C4C94F8241062
:1054F00081421DD0002500B394F82500D0B10020D2
:1055000000F092F90020FFF781FFE08C00F0C6F870
:105510008DF8005060686B46012200782321FFF768
:105520000BFB012084F8240000F07EF9FFF78AFECF
:10553000002038BD4FF0FF3038BD002000F074F976
:10554000207C8DF8000060686B46012200782321E2
:10555000FFF7F2FA84F82450E8E70000A4000020E6
:1055600038B5194C4FF0FF35A17A31B3FA2809D07C
:10557000B0F5FA7F08D0B0F57A7F0FD0B0F5FA6FAA
:105580001BD10DE0002000E008208DF80000207AFB
:105590009DF80010B0EBD10F04D005E01020F4E727
:1055A0001820F2E7002038BD20686B46012281797F
:1055B00060680078FFF7C0FA08B1284638BD9DF84A
:1055C0000000C0082072EDE7A400002038B5174C99
:1055D000054694F82300A84201D1002038BD0DB142
:1055E000302000E000208DF80000A07C28B19DF85C
:1055F000000040F002008DF8000094F8220028B16D
:105600009DF8000040F080008DF8000020686B4697
:105610000122017D60680078FFF78EFA10B14FF02B
:10562000FF3038BD84F82350D7E70000A4000020E5
:1056300038B5194C4FF0FF35A17A31B3BC2801D3EE
:10564000012010E0622801D302200CE02A2801D3B7
:10565000032008E0142801D3042004E00A2801D321
:10566000052000E006208DF80000E07A9DF800108B
:10567000884201D1002038BD20686B460122817824
:1056800060680078FFF758FA08B1284638BD9DF8E1
:105690000000E072EEE70000A4000020F8B51E4D07
:1056A00004464FF0FF37A87A48B395F8240030BB82
:1056B000287D4FF47A7648B164B1282C03D820466F
:1056C000FFF7F2FC26E00020FFF7EEFC042C05D2E9
:1056D000042406E00020FFF7E7FCF9E7B44200D914
:1056E0003446B6FBF4F0401E8DF8000028686B4687
:1056F0000122417868680078FFF71EFA08B1384641
:10570000F8BD9DF80000401CB6FBF0F0E8814008B1
:10571000FFF78EFF0020F8BDA4000020F8B5054675
:1057200010F0700F4FF0000601D0012004E015B119
:105730008DF8006002E040208DF80000244C6B469C
:1057400001222068817C60680078FFF7F5F94FF04E
:10575000FF3760BB9DF8000020F0400020738DF8FB
:105760000060680602D404208DF80000A80605D465
:105770009DF8000040F002008DF80000E80605D416
:105780009DF8000040F001008DF80000280705D4C6
:105790009DF8000040F038008DF8000020686B464E
:1057A0000122C17C60680078FFF7C6F910B1A672CB
:1057B0003846F8BD25B1082D02D00020FFF706FFBE
:1057C000A57226753220FBF7C1FD0020F8BD000050
:1057D000A4000020F8B516000D464FF0FF371FD08B
:1057E000104CA17AE1B1010A8DF80010C0B28DF819
:1057F0000100411960684289914211D821680078FE
:105800006B46097E0222FFF797F948B92068EAB291
:105810003346417D60680078FFF78EF9002800D09C
:105820003846F8BDA4000020F8B5144C01462246C5
:1058300094F82460D2E9000200235D1E56B179B1CC
:10584000022111E0C17B10786B460122FFF774F949
:1058500068B90EE0A67A56B111B1617C61B902E077
:105860008DF80030EEE701218DF80010EAE72846B8
:10587000F8BD9DF8000060740020F8BDA400002071
:10588000800000E000BF401EFCD270470000000016
:1058900000000000010203040607080900000000E0
:1058A0000102030475191A0C6A231B1C1F20727451
:1058B000433B4138393A6B6C376F06246D6E70008C
:1058C000D000000476005401F7FD000183000000C1
:1058D000000800000001001832000500000020410F
:1058E0000000D242295C0F3E9A99993E3333733FB0
:1058F000295C0F3E00007000000000240000000240
:105900000003000000650054FFEF0000FA80000B68
:1059100012820001030C30C30E8C8CE914D54002B6
:1059200013710F8E3883F8833000F883258EF88347
:105930003000F883FFFFFFFF0FFEA9D6240004000C
:105940001A8279A10000003CFFFF00000010000057
:1059500038836FA2003E03304000000002CAE30912
:105960003E80000020000000000000004000000019
:1059700060000000000C0000000C186E0000069291
:105980000A16C0DFFFFF0256FD8CD377FFE1C496F5
:10599000E0C5BEAA00000000FFFF0B2B0000165759
:1059A000000003594000000000001DFA00026C1DB9
:1059B000000000003FFFDFEB003EB3B6000D227891
:1059C00000002F3C00000000001942B5000039A281
:1059D0000000B365D90E9FC91DCF4C3430000000C4
:1059E000500000003BB67AE80064000000C80000E8
:1059F00000000000100000001000FA921000225E6B
:105A0000000D229F0001000000320000FF46000050
:105A100063D400001000000004D6000004CC000095
:105A200004CC0000000010720000004000000000E4
:105A30000000000000060002000500070000000052
:105A40000064000000000000000000050005006484
:105A500000200000000000000000000000004000E6
:105A60000000030000000032F8980000FF6500000D
:105A7000830F0000FF9BFC000000000000000000FE
:105A80000000000000000000000000000000000016
:105A90000000000000000000000000000000000006
:105AA0000000100040000000000000060000B26A84
:105AB000000200000001FB830068000000D9FC0028
:105AC0007CF1FF830000000000650000006403E833
:105AD00000640028000000250000000016A000005F
